{
  "contractName": "Adoption",
  "abi": [
    {
      "anonymous": false,
      "inputs": [
        {
          "indexed": false,
          "internalType": "address",
          "name": "sender",
          "type": "address"
        }
      ],
      "name": "LogAccountAddr",
      "type": "event"
    },
    {
      "anonymous": false,
      "inputs": [
        {
          "indexed": false,
          "internalType": "address[16]",
          "name": "adopters",
          "type": "address[16]"
        }
      ],
      "name": "LogAdopters",
      "type": "event"
    },
    {
      "inputs": [
        {
          "internalType": "uint256",
          "name": "",
          "type": "uint256"
        }
      ],
      "name": "adopters",
      "outputs": [
        {
          "internalType": "address",
          "name": "",
          "type": "address"
        }
      ],
      "stateMutability": "view",
      "type": "function",
      "constant": true
    },
    {
      "inputs": [
        {
          "internalType": "uint256",
          "name": "petId",
          "type": "uint256"
        }
      ],
      "name": "adopt",
      "outputs": [
        {
          "internalType": "uint256",
          "name": "",
          "type": "uint256"
        }
      ],
      "stateMutability": "nonpayable",
      "type": "function"
    },
    {
      "inputs": [],
      "name": "getAdopters",
      "outputs": [
        {
          "internalType": "address[16]",
          "name": "",
          "type": "address[16]"
        }
      ],
      "stateMutability": "view",
      "type": "function",
      "constant": true
    }
  ],
  "bytecode": "0x608060405234801561001057600080fd5b50610596806100206000396000f3fe608060405234801561001057600080fd5b50600436106100415760003560e01c80633de4eb171461004657806343ae80d3146100645780638588b2c514610094575b600080fd5b61004e6100c4565b60405161005b9190610363565b60405180910390f35b61007e600480360381019061007991906103ba565b610145565b60405161008b91906103f6565b60405180910390f35b6100ae60048036038101906100a991906103ba565b61017b565b6040516100bb9190610420565b60405180910390f35b6100cc610263565b600060108060200260405190810160405280929190826010801561013b576020028201915b8160009054906101000a900473ffffffffffffffffffffffffffffffffffffffff1673ffffffffffffffffffffffffffffffffffffffff16815260200190600101908083116100f1575b5050505050905090565b6000816010811061015557600080fd5b016000915054906101000a900473ffffffffffffffffffffffffffffffffffffffff1681565b60007f60647878f5c4aca61c76cf747bbccb25bc8adae1d11f557298be04ee9f602f93336040516101ac91906103f6565b60405180910390a1600082101580156101c65750600f8211155b6101cf57600080fd5b33600083601081106101e4576101e361043b565b5b0160006101000a81548173ffffffffffffffffffffffffffffffffffffffff021916908373ffffffffffffffffffffffffffffffffffffffff1602179055507f4afb3b57fc233b3eeb6e2b33e4dfbe715a2f5f0880e9c5c7a99256b4f4ed97cc60006040516102539190610544565b60405180910390a1819050919050565b604051806102000160405280601090602082028036833780820191505090505090565b600060109050919050565b600081905092915050565b6000819050919050565b600073ffffffffffffffffffffffffffffffffffffffff82169050919050565b60006102d1826102a6565b9050919050565b6102e1816102c6565b82525050565b60006102f383836102d8565b60208301905092915050565b6000602082019050919050565b61031581610286565b61031f8184610291565b925061032a8261029c565b8060005b8381101561035b57815161034287826102e7565b965061034d836102ff565b92505060018101905061032e565b505050505050565b600061020082019050610379600083018461030c565b92915050565b600080fd5b6000819050919050565b61039781610384565b81146103a257600080fd5b50565b6000813590506103b48161038e565b92915050565b6000602082840312156103d0576103cf61037f565b5b60006103de848285016103a5565b91505092915050565b6103f0816102c6565b82525050565b600060208201905061040b60008301846103e7565b92915050565b61041a81610384565b82525050565b60006020820190506104356000830184610411565b92915050565b7f4e487b7100000000000000000000000000000000000000000000000000000000600052603260045260246000fd5b600060109050919050565b6000819050919050565b60008160001c9050919050565b600073ffffffffffffffffffffffffffffffffffffffff82169050919050565b60006104bf6104ba8361047f565b61048c565b9050919050565b60006104d282546104ac565b9050919050565b6000600182019050919050565b6104ef8161046a565b6104f98184610291565b925061050482610475565b8060005b8381101561053c57610519826104c6565b61052387826102e7565b965061052e836104d9565b925050600181019050610508565b505050505050565b60006102008201905061055a60008301846104e6565b9291505056fea2646970667358221220c58ddd33587ba15a18e9b388388a6aca17518e3322a4451222e823a2d29b263064736f6c63430008110033",
  "immutableReferences": {},
  "source": "// SPDX-License-Identifier: MIT\npragma solidity ^0.8.17;\n\ncontract Adoption {\n    event LogAccountAddr(address sender);\n    event LogAdopters(address[16] adopters);\n    address[16] public adopters;\n\n    // Adopting a pet\n    function adopt(uint256 petId) public returns (uint256) {\n        emit LogAccountAddr(msg.sender);\n        require(petId >= 0 && petId <= 15);\n\n        adopters[petId] = msg.sender;\n        emit LogAdopters(adopters);\n        return petId;\n    }\n\n    // Retrieving the adopters\n    function getAdopters() public view returns (address[16] memory) {\n        return adopters;\n    }\n}\n",
  "sourcePath": "/Users/Mona/workspace/pengson/pet-shop-vue/contracts/Adoption.sol",
  "compiler": {
    "name": "solc",
    "version": "0.8.17+commit.8df45f5f.Emscripten.clang"
  },
  "schemaVersion": "3.4.16",
  "updatedAt": "2023-11-22T09:29:00.402Z",
  "networkType": "ethereum",
  "devdoc": {
    "kind": "dev",
    "methods": {},
    "version": 1
  },
  "userdoc": {
    "kind": "user",
    "methods": {},
    "version": 1
  }
}